:10C000005542200135D0085A82451A0231400004B9
:10C010003F4002000F93082492421A0220012F830E
:10C020009F4F60C30002F8233F4018000F9307247E
:10C0300092421A0220011F83CF430202F923B24029
:10C04000805A2001D242F8105600D242F91057000F
:10C05000B240E040B201B2D01818B001F2D05100A5
:10C060004A00F2D006002600F2D006004100F2D0CD
:10C0700020002A00B012AEC0F2D080FF6100F24072
:10C080008AFF6200C2436300F2426400F2F0FEFFE6
:10C090006100D2D30100F2D00C002A0032D2E2E2D9
:10C0A0002900FD3F32D0F000FD3F304056C3F2D0B2
:10C0B000200029003041B012AEC030415F42030081
:10C0C0001FF3FC275F4266004F4F30415E42030082
:10C0D0002EF3FC27C24F670030417F900A00032CEB
:10C0E0007F50300030417F50370030410B120B4FF2
:10C0F0000E4F8E104E4E12C30E1012C30E1012C3EE
:10C100000E1012C30E104F4EB012DAC0B012CCC0D7
:10C110000F4B8F107FF00F00B012DAC0B012CCC0FE
:10C120000E4B12C30E1012C30E1012C30E1012C308
:10C130000E104F4E7FF00F00B012DAC0B012CCC01C
:10C140004F4B7FF00F00B012DAC0B012CCC03B41B1
:10C1500030410B124B4F7F905C000220B012CCC0DC
:10C160004F4BB012CCC03B4130410B120B4F6F4BC9
:10C17000B01252C17F4B4F93FA233B4130410B1217
:10C180000A120B4F0A4F0A5E033C7F4BB01252C19A
:10C190000B9AFB2B3A413B4130410F120E120D120C
:10C1A0000C120B120A125E4266005D4202026DF230
:10C1B0005F42020213247FF0FBFFC24F02027E9017
:10C1C000230013205FD37FF0F9FFC24F0202B24079
:10C1D00006020402B240080212028A3C7E905C0011
:10C1E00004206FD2C24F0202833C5F4202025FB35F
:10C1F0007F244D4F6DF31F4204020220CF4E0000FA
:10C200000E4F1E53824E04021E92120271205A4299
:10C2100002024C4A7CF0FEFFC24C02025B42060264
:10C220007B90CCFF30203E90080208205CD3C24CAB
:10C2300002023F500A00824F12025A3C5C4207023F
:10C240004F4C12C34F103D4009020E43063C5A4E5C
:10C2500058C37B4D1E534A9B4B204E9FF82B5CF3DB
:10C2600009244F4F5E4F58C35EEF09024F4E3FB057
:10C27000F0003E207F43B012CCC0D2420802000240
:10C28000C2430102353C1D4200024F4B0F9D04206A
:10C29000D29307022D201F3C7B932A205F42070286
:10C2A0007F90FEFF03247F9323201C3CE2B3020215
:10C2B0000E200D9310247CD00300C24C02020F4DBF
:10C2C0000F5F0F5D0F5F0E5F824E1202113C7AF01E
:10C2D000FCFFC24A02023E4006003F401402B01278
:10C2E0007EC1063CB2D00300B001B1D010000C00FA
:10C2F0003A413B413C413D413E413F4100130F1219
:10C30000B2F0FDFFB0011F42B2013F90E0400D24AA
:10C310003F90E06011243F90E0001520B240E040E3
:10C32000B2019242B40114020E3CB240E060B2018C
:10C330009242B4011602073CB240E000B2019242C0
:10C34000B4011802063CB2D00300B001B1D0100015
:08C3500002003F41001300133D
:08C358005FB35DDD5BB65EB76B
:02C36000FE00DD
:10FFE000AAC0AAC0AAC0AAC0AAC0FEC2AAC09AC17A
:10FFF000AAC0AAC0AAC0AAC0AAC0AAC0AAC000C05B
:040000030000C00039
:00000001FF
