:10C000005542200135D0085A82451C0231400004B7
:10C010003F4002000F93082492421C0220012F830C
:10C020009F4F18C30002F8233F401A000F930724C4
:10C0300092421C0220011F83CF430202F923B24027
:10C04000805A2001D242F8105600D242F91057000F
:10C05000B2406040B201B24060401402B2D0101849
:10C06000B001F2D051004A00F2D006002600F2D012
:10C0700006004100F2D020002A00B012BAC0F2D06F
:10C0800080FF6100F2408AFF6200C2436300F24217
:10C090006400F2F0FEFF6100D2D30100F2D00C0088
:10C0A0002A0032D2B2D00300B001E2E22900FD3F03
:10C0B00032D0F000FD3F304000C3F2D02000290014
:10C0C0003041B012BAC030415F4203001FF3FC2779
:10C0D0005F4266004F4F30415E4203002EF3FC2763
:10C0E000C24F670030417F900A00032C7F50300020
:10C0F00030417F50370030410B120B4F0E4F8E10E6
:10C100004E4E12C30E1012C30E1012C30E1012C3E5
:10C110000E104F4EB012E6C0B012D8C00F4B8F10A9
:10C120007FF00F00B012E6C0B012D8C00E4B12C3A1
:10C130000E1012C30E1012C30E1012C30E104F4E6B
:10C140007FF00F00B012E6C0B012D8C04F4B7FF0A6
:10C150000F00B012E6C0B012D8C03B4130410B1204
:10C160004B4F7F905C000220B012D8C04F4BB012F2
:10C17000D8C03B4130410B120B4F6F4BB0125EC128
:10C180007F4B4F93FA233B4130410B120B4F8F10E3
:10C19000B0125EC14F4BB0125EC13B4130410F1235
:10C1A0000E120D120C120B125E426600E2B3020276
:10C1B00013245F4202027FF0FDFFC24F02027E9015
:10C1C000230010205FD3C24F0202B24006020402D5
:10C1D000B240080212025D3C7E905C000320E2D374
:10C1E0000202573CD2B3020254241F420402CF4E33
:10C1F00000000E4F1E53824E04021E92120249206E
:10C200005C4202027CF0FEFFC24C02025D4206026A
:10C210007D90CCFF22203E90080206245D4207025A
:10C220003E4009020F430E3C5CD3C24C02023F5019
:10C230000A00824F12022D3C5B4F0FC37C4E1F53EE
:10C240004B9C27204F9DF82B7F43B012D8C0D24281
:10C2500008020002C24301021C3C4F4D1F92000223
:10C2600018205F4207025F9303246F931220053C5E
:10C270003F4002C3B01276C10C3C1F421602B012FE
:10C280008AC11F421802B0128AC11F421A02B0129C
:10C290008AC13B413C413D413E413F4100130F12A9
:10C2A000B2F0FDFFB0011F4214023F9060400D2428
:10C2B0003F90606014243F9060001A20B2406040BC
:10C2C00014029242B4011602063CB24060601402AD
:10C2D0009242B4011802B1D010000200093CB240F1
:10C2E000600014029242B4011A02B1C010000200B0
:10C2F00092421402B201B2D00300B0013F410013D8
:02C30000001328
:10C30200E5BEB3E5B79DE5AEB6E5BAB700000000FD
:06C3120000000000000025
:02C31800FF0024
:10FFE000B6C0B6C0B6C0B6C0B6C09EC2B6C09EC18E
:10FFF000B6C0B6C0B6C0B6C0B6C0B6C0B6C000C007
:040000030000C00039
:00000001FF
