:10FC00005542200135D0085A824508023140000390
:10FC10003F4000000F9308249242080220012F83E6
:10FC20009F4F3AFE0002F8233F4008000F9307243D
:10FC30009242080220011F83CF430002F923B24001
:10FC4000805A2001D242F8105600D242F9105700D3
:10FC5000B2406040B201B24060400002B2D0181819
:10FC6000B001F2D051004A00F2D006002600F2D0D6
:10FC700006004100F2D080FF6100F2408AFF62007E
:10FC8000C2436300F2426400F2F0FEFF6100F2D072
:10FC90000C002A0032D2B2D00300B00132D01000E2
:10FCA000E2E229007F405200B0120CFD7F402000AC
:10FCB000B0120CFD1F420202B01292FD7F402000E4
:10FCC000B0120CFD1F420402B01292FD7F402000D2
:10FCD000B0120CFD1F420602B01292FD7F400D00D3
:10FCE000B0120CFD7F400A00B0120CFD32D01000A3
:10FCF000D73F32D0F000FD3F304038FE5F42030076
:10FD00001FF3FC275F4266004F4F30415E42030005
:10FD10002EF3FC27C24F670030417F900A00032C6E
:10FD20007F50300030417F50370030410B120B4F75
:10FD30000E4F8E104E4E12C30E1012C30E1012C371
:10FD40000E1012C30E104F4EB0121AFDB0120CFD61
:10FD50000F4B8F107FF00F00B0121AFDB0120CFD88
:10FD60000E4B12C30E1012C30E1012C30E1012C38C
:10FD70000E104F4E7FF00F00B0121AFDB0120CFDA6
:10FD80004F4B7FF00F00B0121AFDB0120CFD3B413B
:10FD900030410B120B4F8F107FF00F00B0121AFD85
:10FDA000B0120CFD0E4B12C30E1012C30E1012C374
:10FDB0000E1012C30E104F4E7FF00F00B0121AFD3E
:10FDC000B0120CFD4F4B7FF00F00B0121AFDB012B5
:10FDD0000CFD3B4130410F12B2F0FDFFB0011F425C
:10FDE00000023F9060400D243F90606014243F90DB
:10FDF00060001A20B240604000029242B401020248
:10FE0000063CB240606000029242B4010402B1D0EC
:10FE100010000200093CB240600000029242B401AE
:10FE20000602B1C01000020092420002B201B2D03C
:0AFE30000300B0013F41001300136E
:10FFE000F8FCF8FCF8FCF8FCF8FCD6FDF8FCF8FC92
:10FFF000F8FCF8FCF8FCF8FCF8FCF8FCF8FC00FC59
:040000030000FC00FD
:00000001FF
