:10C000005542200135D0085A82452A0231400004A9
:10C010003F4002000F93082492422A0220012F83FE
:10C020009F4F78C30002F8233F4028000F93072456
:10C0300092422A0220011F83CF430202F923B24019
:10C04000805A2001D242F8105600D242F91057000F
:10C05000B2406440B201B2D01818B001F2D0510021
:10C060004A00C2434800B2401A02BC01F2424900F1
:10C07000F2D006002600F2D006004100F2D02000E7
:10C080002A00B012BCC0F2D080FF6100F2408AFFEB
:10C090006200C2436300F2426400F2F0FEFF6100FE
:10C0A000D2D30100F2D00C002A0032D2E2E2290001
:10C0B000FD3F32D0F000FD3F30406EC3F2D0200093
:10C0C00029003041B012BCC030415F4203001FF371
:10C0D000FC275F4266004F4F30415E4203002EF363
:10C0E000FC27C24F670030417F900A00032C7F502D
:10C0F000300030417F50370030410B120B4F0E4F54
:10C100008E104E4E12C30E1012C30E1012C30E101C
:10C1100012C30E104F4EB012E8C0B012DAC00F4B6F
:10C120008F107FF00F00B012E8C0B012DAC00E4BD3
:10C1300012C30E1012C30E1012C30E1012C30E1033
:10C140004F4E7FF00F00B012E8C0B012DAC04F4B74
:10C150007FF00F00B012E8C0B012DAC03B413041AE
:10C160000B124B4F7F905C000220B012DAC04F4B95
:10C17000B012DAC03B4130410B120B4F6F4BB01283
:10C1800060C17F4B4F93FA233B4130410B120A129F
:10C190000B4F0A4F0A5E033C7F4BB01260C10B9AF3
:10C1A000FB2B3A413B4130410F120E120D120C1283
:10C1B0005F4266005D4202026DF25E42020213249B
:10C1C0007EF0FBFFC24E02027F90230013205ED35D
:10C1D0007EF0F9FFC24E0202B24006020402B240F3
:10C1E00008021202863C7F905C0004206ED2C24E90
:10C1F00002027F3C5D4202025DB37B246DF30420AA
:10C200001E420402CE4F00001E4204021E53824E04
:10C2100004021E9212026D205F4206027F90CCFF44
:10C2200028203E90080254245C4207024F4C12C35F
:10C230004F104F4F3D4009020E43063C1D53DE9DFB
:10C24000FFFF70C348201E530E9FF82B1CF30824D9
:10C250005E4F70C35EEF09024F4E3FB0F0003B20CF
:10C260007F43B012DAC0D24208020002C243010288
:10C27000323C1E4200024C4F0C9E0420D293070217
:10C280002A20183C7F9327205F4207027F90FEFF01
:10C2900003247F932020153C4D9309200E930A24FC
:10C2A000E2D302020F4E0F5F0F5E0F5F153CF2F0FC
:10C2B000FDFF02023E4006003F401402B0128CC156
:10C2C0000A3CB2D00300B001B1D010000800033C1A
:10C2D0003F400900013C0F435E430F9301204E4352
:10C2E0005D4202027DF0FEFF4DDEC24D0202825F22
:10C2F00012023C413D413E413F4100130F120E12DC
:10C30000B2F0FDFFB0013E401A020F43013C3F5E18
:10C310003E902A02FC2B12C30F1012C30F1012C33F
:10C320000F101E42B2013E9064400C243E906460A7
:10C330000F243E9064001220B2406440B201824F4C
:10C3400014020C3CB2406460B201824F1602063CFB
:10C35000B2406400B201824F1802063CB2D0030022
:10C36000B001B1D0100004003E413F410013001362
:08C370005FB35DDD5BB65EB753
:02C37800FE00C5
:10FFE000B8C0B8C0B8C0B8C0B8C0FCC2B8C0A8C11A
:10FFF000B8C0B8C0B8C0B8C0B8C0B8C0B8C000C0F9
:040000030000C00039
:00000001FF
